{
  "contractName": "Escrow",
  "abi": [
    {
      "constant": true,
      "inputs": [],
      "name": "seller",
      "outputs": [
        {
          "name": "",
          "type": "address"
        }
      ],
      "payable": false,
      "stateMutability": "view",
      "type": "function"
    },
    {
      "constant": true,
      "inputs": [],
      "name": "buyer",
      "outputs": [
        {
          "name": "",
          "type": "address"
        }
      ],
      "payable": false,
      "stateMutability": "view",
      "type": "function"
    },
    {
      "inputs": [
        {
          "name": "buyer_address",
          "type": "address"
        },
        {
          "name": "seller_address",
          "type": "address"
        }
      ],
      "payable": true,
      "stateMutability": "payable",
      "type": "constructor"
    },
    {
      "constant": false,
      "inputs": [],
      "name": "accept",
      "outputs": [],
      "payable": false,
      "stateMutability": "nonpayable",
      "type": "function"
    },
    {
      "constant": false,
      "inputs": [],
      "name": "deposit",
      "outputs": [],
      "payable": true,
      "stateMutability": "payable",
      "type": "function"
    },
    {
      "constant": false,
      "inputs": [],
      "name": "cancel",
      "outputs": [],
      "payable": false,
      "stateMutability": "nonpayable",
      "type": "function"
    },
    {
      "constant": true,
      "inputs": [],
      "name": "kill",
      "outputs": [],
      "payable": false,
      "stateMutability": "view",
      "type": "function"
    }
  ],
  "bytecode": "0x60606040526040516040806107e88339810160405280805190602001909190805190602001909190505081600160006101000a81548173ffffffffffffffffffffffffffffffffffffffff021916908373ffffffffffffffffffffffffffffffffffffffff16021790555080600260006101000a81548173ffffffffffffffffffffffffffffffffffffffff021916908373ffffffffffffffffffffffffffffffffffffffff16021790555033600360006101000a81548173ffffffffffffffffffffffffffffffffffffffff021916908373ffffffffffffffffffffffffffffffffffffffff1602179055504260048190555050506106e4806101046000396000f300606060405260043610610078576000357c0100000000000000000000000000000000000000000000000000000000900463ffffffff16806308551a531461007d5780632852b71c146100d257806341c0e1b5146100e75780637150d8ae146100fc578063d0e30db014610151578063ea8a1af01461015b575b600080fd5b341561008857600080fd5b610090610170565b604051808273ffffffffffffffffffffffffffffffffffffffff1673ffffffffffffffffffffffffffffffffffffffff16815260200191505060405180910390f35b34156100dd57600080fd5b6100e5610196565b005b34156100f257600080fd5b6100fa610337565b005b341561010757600080fd5b61010f6103ca565b604051808273ffffffffffffffffffffffffffffffffffffffff1673ffffffffffffffffffffffffffffffffffffffff16815260200191505060405180910390f35b6101596103f0565b005b341561016657600080fd5b61016e610458565b005b600260009054906101000a900473ffffffffffffffffffffffffffffffffffffffff1681565b600160009054906101000a900473ffffffffffffffffffffffffffffffffffffffff1673ffffffffffffffffffffffffffffffffffffffff163373ffffffffffffffffffffffffffffffffffffffff16141561020c576001600560006101000a81548160ff02191690831515021790555061027f565b600260009054906101000a900473ffffffffffffffffffffffffffffffffffffffff1673ffffffffffffffffffffffffffffffffffffffff163373ffffffffffffffffffffffffffffffffffffffff16141561027e576001600560016101000a81548160ff0219169083151502179055505b5b600560009054906101000a900460ff1680156102a75750600560019054906101000a900460ff165b156102b9576102b46105ad565b610335565b600560009054906101000a900460ff1680156102e25750600560019054906101000a900460ff16155b80156102f4575062278d006004540142115b1561033457600160009054906101000a900473ffffffffffffffffffffffffffffffffffffffff1673ffffffffffffffffffffffffffffffffffffffff16ff5b5b565b600360009054906101000a900473ffffffffffffffffffffffffffffffffffffffff1673ffffffffffffffffffffffffffffffffffffffff163373ffffffffffffffffffffffffffffffffffffffff1614156103c857600160009054906101000a900473ffffffffffffffffffffffffffffffffffffffff1673ffffffffffffffffffffffffffffffffffffffff16ff5b565b600160009054906101000a900473ffffffffffffffffffffffffffffffffffffffff1681565b600160009054906101000a900473ffffffffffffffffffffffffffffffffffffffff1673ffffffffffffffffffffffffffffffffffffffff163373ffffffffffffffffffffffffffffffffffffffff161415610456573460008082825401925050819055505b565b600160009054906101000a900473ffffffffffffffffffffffffffffffffffffffff1673ffffffffffffffffffffffffffffffffffffffff163373ffffffffffffffffffffffffffffffffffffffff1614156104ce576000600560006101000a81548160ff021916908315150217905550610541565b600260009054906101000a900473ffffffffffffffffffffffffffffffffffffffff1673ffffffffffffffffffffffffffffffffffffffff163373ffffffffffffffffffffffffffffffffffffffff161415610540576000600560016101000a81548160ff0219169083151502179055505b5b600560009054906101000a900460ff1615801561056b5750600560019054906101000a900460ff16155b156105ab57600160009054906101000a900473ffffffffffffffffffffffffffffffffffffffff1673ffffffffffffffffffffffffffffffffffffffff16ff5b565b600360009054906101000a900473ffffffffffffffffffffffffffffffffffffffff1673ffffffffffffffffffffffffffffffffffffffff166108fc60643073ffffffffffffffffffffffffffffffffffffffff163181151561060c57fe5b049081150290604051600060405180830381858888f19350505050151561063257600080fd5b600260009054906101000a900473ffffffffffffffffffffffffffffffffffffffff1673ffffffffffffffffffffffffffffffffffffffff166108fc3073ffffffffffffffffffffffffffffffffffffffff16319081150290604051600060405180830381858888f19350505050156106b157600080819055506106b6565b600080fd5b5600a165627a7a72305820968b4fe2a499ec796ae775a20f2e7abb11014b0580687a9d8507dc162e2b80b80029",
  "source": "pragma solidity ^0.4.11;\ncontract Escrow {\n    uint balance;\n    address public buyer;\n    address public seller;\n    address private escrow;\n    uint private start;\n    bool buyerOk;\n    bool sellerOk;\nfunction Escrow(address buyer_address, address seller_address) public payable {\n        // this is the constructor function that runs ONCE upon initialization\n        buyer = buyer_address;\n        seller = seller_address;\n        escrow = msg.sender;\n        start = now; //now is an alias for block.timestamp, not really \"now\"\n    }\n\n    function accept() public {\n        if (msg.sender == buyer){\n            buyerOk = true;\n        } else if (msg.sender == seller){\n            sellerOk = true;\n        }\n        if (buyerOk && sellerOk){\n            payBalance();\n        } else if (buyerOk && !sellerOk && now > start + 30 days) {\n            // Freeze 30 days before release to buyer. The customer has to remember to call this method after freeze period.\n            selfdestruct(buyer);\n        }\n    }\n\n    function payBalance() private {\n        // we are sending ourselves (contract creator) a fee\n        escrow.transfer(this.balance / 100);\n        // send seller the balance\n        if (seller.send(this.balance)) {\n            balance = 0;\n        } else {\n            throw;\n        }\n    }\n\n    function deposit() public payable {\n        if (msg.sender == buyer) {\n            balance += msg.value;\n        }\n    }\n\n    function cancel() public {\n        if (msg.sender == buyer){\n            buyerOk = false;\n        } else if (msg.sender == seller){\n            sellerOk = false;\n        }\n        // if both buyer and seller would like to cancel, money is returned to buyer\n        if (!buyerOk && !sellerOk){\n            selfdestruct(buyer);\n        }\n    }\n\n    function kill() public constant {\n        if (msg.sender == escrow) {\n            selfdestruct(buyer);\n        }\n    }\n}\n",
  "sourcePath": "/Users/juanbernardotobar/lacanoa/thechain/contracts/Escrow.sol",
  "compiler": {
    "name": "solc",
    "version": "0.4.19+commit.c4cbbb05.Emscripten.clang"
  },
  "schemaVersion": "1.0.1",
  "updatedAt": "2018-05-10T14:47:46.912Z"
}