{
  "contractName": "RTSOracle",
  "abi": [
    {
      "constant": true,
      "inputs": [],
      "name": "owner",
      "outputs": [
        {
          "name": "",
          "type": "address"
        }
      ],
      "payable": false,
      "stateMutability": "view",
      "type": "function"
    },
    {
      "constant": true,
      "inputs": [],
      "name": "RTSprice",
      "outputs": [
        {
          "name": "",
          "type": "uint256"
        }
      ],
      "payable": false,
      "stateMutability": "view",
      "type": "function"
    },
    {
      "inputs": [],
      "payable": false,
      "stateMutability": "nonpayable",
      "type": "constructor"
    },
    {
      "anonymous": false,
      "inputs": [],
      "name": "CallbackGetRTS",
      "type": "event"
    },
    {
      "constant": false,
      "inputs": [],
      "name": "updateRTS",
      "outputs": [],
      "payable": false,
      "stateMutability": "nonpayable",
      "type": "function"
    },
    {
      "constant": false,
      "inputs": [
        {
          "name": "cap",
          "type": "uint256"
        }
      ],
      "name": "setRTS",
      "outputs": [],
      "payable": false,
      "stateMutability": "nonpayable",
      "type": "function"
    },
    {
      "constant": true,
      "inputs": [],
      "name": "getRTS",
      "outputs": [
        {
          "name": "",
          "type": "uint256"
        }
      ],
      "payable": false,
      "stateMutability": "view",
      "type": "function"
    }
  ],
  "bytecode": "0x6060604052341561000f57600080fd5b336000806101000a81548173ffffffffffffffffffffffffffffffffffffffff021916908373ffffffffffffffffffffffffffffffffffffffff1602179055506102458061005e6000396000f30060606040526004361061006d576000357c0100000000000000000000000000000000000000000000000000000000900463ffffffff16806323defb081461007257806333ffae381461009b5780635834e932146100b05780638da5cb5b146100d3578063e9326c4a14610128575b600080fd5b341561007d57600080fd5b610085610151565b6040518082815260200191505060405180910390f35b34156100a657600080fd5b6100ae61015b565b005b34156100bb57600080fd5b6100d16004808035906020019091905050610189565b005b34156100de57600080fd5b6100e66101ee565b604051808273ffffffffffffffffffffffffffffffffffffffff1673ffffffffffffffffffffffffffffffffffffffff16815260200191505060405180910390f35b341561013357600080fd5b61013b610213565b6040518082815260200191505060405180910390f35b6000600154905090565b7f7475d8348ab31ac2b90531dd077d603037c8ce18e9321d096fef28dce3a76fad60405160405180910390a1565b6000809054906101000a900473ffffffffffffffffffffffffffffffffffffffff1673ffffffffffffffffffffffffffffffffffffffff163373ffffffffffffffffffffffffffffffffffffffff161415156101e457600080fd5b8060018190555050565b6000809054906101000a900473ffffffffffffffffffffffffffffffffffffffff1681565b600154815600a165627a7a72305820db9297a70bc3ff1dc6165acb504ca3935877b9a65955e43b1b6e1657fd4e41980029",
  "source": "pragma solidity ^0.4.17;\n\ncontract RTSOracle {\n  // Contract owner\n  address public owner;\n\n  // BTC Marketcap Storage\n  // uint public btcMarketCap;\n  uint public RTSprice;\n\n  // Callback function\n  event CallbackGetRTS();\n\n  function RTSOracle() public {\n    owner = msg.sender;\n  }\n\n  function updateRTS() public {\n    // Calls the callback function\n    CallbackGetRTS();\n  }\n\n  function setRTS(uint cap) public {\n    // If it isn't sent by a trusted oracle\n    // a.k.a ourselves, ignore it\n    require(msg.sender == owner);\n    RTSprice = cap;\n  }\n\n  function getRTS() constant public returns (uint) {\n    return RTSprice;\n  }\n}\n",
  "sourcePath": "/Users/juanbernardotobar/lacanoa/thechain/contracts/RTSOracle.sol",
  "compiler": {
    "name": "solc",
    "version": "0.4.19+commit.c4cbbb05.Emscripten.clang"
  },
  "schemaVersion": "1.0.1",
  "updatedAt": "2018-05-10T14:47:47.291Z"
}