{
  "contractName": "Storager",
  "abi": [
    {
      "constant": true,
      "inputs": [
        {
          "name": "",
          "type": "bytes32"
        }
      ],
      "name": "uints1",
      "outputs": [
        {
          "name": "",
          "type": "uint256"
        }
      ],
      "payable": false,
      "stateMutability": "view",
      "type": "function"
    },
    {
      "constant": true,
      "inputs": [],
      "name": "owner",
      "outputs": [
        {
          "name": "",
          "type": "address"
        }
      ],
      "payable": false,
      "stateMutability": "view",
      "type": "function"
    },
    {
      "inputs": [],
      "payable": false,
      "stateMutability": "nonpayable",
      "type": "constructor"
    },
    {
      "anonymous": false,
      "inputs": [],
      "name": "CallbackGetPrices",
      "type": "event"
    },
    {
      "constant": false,
      "inputs": [],
      "name": "updatePrices",
      "outputs": [],
      "payable": false,
      "stateMutability": "nonpayable",
      "type": "function"
    },
    {
      "constant": false,
      "inputs": [
        {
          "name": "code",
          "type": "bytes32"
        },
        {
          "name": "cap",
          "type": "uint256"
        }
      ],
      "name": "setPrice",
      "outputs": [],
      "payable": false,
      "stateMutability": "nonpayable",
      "type": "function"
    },
    {
      "constant": false,
      "inputs": [
        {
          "name": "inx",
          "type": "bytes32[]"
        },
        {
          "name": "cap",
          "type": "uint256[]"
        }
      ],
      "name": "setPrices",
      "outputs": [],
      "payable": false,
      "stateMutability": "nonpayable",
      "type": "function"
    },
    {
      "constant": true,
      "inputs": [
        {
          "name": "code",
          "type": "bytes32"
        }
      ],
      "name": "getPrice",
      "outputs": [
        {
          "name": "",
          "type": "uint256"
        }
      ],
      "payable": false,
      "stateMutability": "view",
      "type": "function"
    }
  ],
  "bytecode": "0x6060604052341561000f57600080fd5b336000806101000a81548173ffffffffffffffffffffffffffffffffffffffff021916908373ffffffffffffffffffffffffffffffffffffffff1602179055506104448061005e6000396000f300606060405260043610610078576000357c0100000000000000000000000000000000000000000000000000000000900463ffffffff16806310d8d74d1461007d5780631cfdd523146100ad57806331d98b3f1461014757806348d0fbb21461018257806349dd1262146101bd5780638da5cb5b146101d2575b600080fd5b341561008857600080fd5b6100ab600480803560001916906020019091908035906020019091905050610227565b005b34156100b857600080fd5b610145600480803590602001908201803590602001908080602002602001604051908101604052809392919081815260200183836020028082843782019150505050505091908035906020019082018035906020019080806020026020016040519081016040528093929190818152602001838360200280828437820191505050505050919050506102a6565b005b341561015257600080fd5b61016c600480803560001916906020019091905050610388565b6040518082815260200191505060405180910390f35b341561018d57600080fd5b6101a76004808035600019169060200190919050506103ad565b6040518082815260200191505060405180910390f35b34156101c857600080fd5b6101d06103c5565b005b34156101dd57600080fd5b6101e56103f3565b604051808273ffffffffffffffffffffffffffffffffffffffff1673ffffffffffffffffffffffffffffffffffffffff16815260200191505060405180910390f35b6000809054906101000a900473ffffffffffffffffffffffffffffffffffffffff1673ffffffffffffffffffffffffffffffffffffffff163373ffffffffffffffffffffffffffffffffffffffff1614151561028257600080fd5b80600160008460001916600019168152602001908152602001600020819055505050565b6000806000835185511415156102bb57600080fd5b6000809054906101000a900473ffffffffffffffffffffffffffffffffffffffff1673ffffffffffffffffffffffffffffffffffffffff163373ffffffffffffffffffffffffffffffffffffffff1614151561031657600080fd5b5b845183101561038157848381518110151561032e57fe5b906020019060200201519150838381518110151561034857fe5b90602001906020020151905080600160008460001916600019168152602001908152602001600020819055508280600101935050610317565b5050505050565b6000600160008360001916600019168152602001908152602001600020549050919050565b60016020528060005260406000206000915090505481565b7f7a5a9be2557368a508b5719d592358a0eac73fdea1bc6c5eedf35c140e47172760405160405180910390a1565b6000809054906101000a900473ffffffffffffffffffffffffffffffffffffffff16815600a165627a7a72305820593de3bee2791dab1a6c963b535f1e83c202441780a1d765d273eea04f2d05d90029",
  "source": "pragma solidity^0.4.17;\n\ncontract Storager {\n  address public owner;\n\n\n  mapping (bytes32 => uint) public uints1;\n\n  event CallbackGetPrices();\n\n  function Storager() public {\n    owner = msg.sender;\n  }\n\n  function updatePrices() public {\n    // Calls the callback function\n    CallbackGetPrices();\n  }\n  function setPrice(bytes32 code, uint cap) public {\n    // If it isn't sent by a trusted oracle\n    // a.k.a ourselves, ignore it\n    require(msg.sender == owner);\n    uints1[code] = cap;\n  }\n  function setPrices(bytes32[] inx, uint[] cap) public {\n    // If it isn't sent by a trusted oracle\n    // a.k.a ourselves, ignore it\n    require(inx.length == cap.length);\n    require(msg.sender == owner);\n\n    for(uint i;i<inx.length;i++) {\n      bytes32 mush = inx[i];\n      uint val = cap[i];\n      uints1[mush] = val;\n    }\n  }\n\n  function getPrice(bytes32 code) constant public returns (uint) {\n    return uints1[code];\n  }\n\n\n\n}\n",
  "sourcePath": "/Users/juanbernardotobar/lacanoa/thechain/contracts/Storager.sol",
  "compiler": {
    "name": "solc",
    "version": "0.4.19+commit.c4cbbb05.Emscripten.clang"
  },
  "schemaVersion": "1.0.1",
  "updatedAt": "2018-05-12T06:42:53.277Z"
}