{
  "contractName": "Storager2",
  "abi": [
    {
      "constant": true,
      "inputs": [
        {
          "name": "",
          "type": "bytes32"
        }
      ],
      "name": "uints1",
      "outputs": [
        {
          "name": "",
          "type": "uint256"
        }
      ],
      "payable": false,
      "stateMutability": "view",
      "type": "function"
    },
    {
      "constant": true,
      "inputs": [],
      "name": "owner",
      "outputs": [
        {
          "name": "",
          "type": "address"
        }
      ],
      "payable": false,
      "stateMutability": "view",
      "type": "function"
    },
    {
      "inputs": [],
      "payable": false,
      "stateMutability": "nonpayable",
      "type": "constructor"
    },
    {
      "anonymous": false,
      "inputs": [],
      "name": "CallbackGetPrices",
      "type": "event"
    },
    {
      "constant": false,
      "inputs": [],
      "name": "updatePrices",
      "outputs": [],
      "payable": false,
      "stateMutability": "nonpayable",
      "type": "function"
    },
    {
      "constant": false,
      "inputs": [
        {
          "name": "code",
          "type": "bytes32"
        },
        {
          "name": "cap",
          "type": "uint256"
        }
      ],
      "name": "setPrice",
      "outputs": [],
      "payable": false,
      "stateMutability": "nonpayable",
      "type": "function"
    },
    {
      "constant": false,
      "inputs": [
        {
          "name": "inx",
          "type": "bytes32[]"
        },
        {
          "name": "cap",
          "type": "uint256[]"
        }
      ],
      "name": "setPrices",
      "outputs": [],
      "payable": false,
      "stateMutability": "nonpayable",
      "type": "function"
    },
    {
      "constant": true,
      "inputs": [
        {
          "name": "codes",
          "type": "bytes32[]"
        }
      ],
      "name": "getPrices",
      "outputs": [
        {
          "name": "",
          "type": "uint256[]"
        }
      ],
      "payable": false,
      "stateMutability": "view",
      "type": "function"
    }
  ],
  "bytecode": "0x6060604052341561000f57600080fd5b336000806101000a81548173ffffffffffffffffffffffffffffffffffffffff021916908373ffffffffffffffffffffffffffffffffffffffff1602179055506105dc8061005e6000396000f300606060405260043610610078576000357c0100000000000000000000000000000000000000000000000000000000900463ffffffff16806310d8d74d1461007d5780631cfdd523146100ad57806326ee48361461014757806348d0fbb2146101f657806349dd1262146102315780638da5cb5b14610246575b600080fd5b341561008857600080fd5b6100ab60048080356000191690602001909190803590602001909190505061029b565b005b34156100b857600080fd5b6101456004808035906020019082018035906020019080806020026020016040519081016040528093929190818152602001838360200280828437820191505050505050919080359060200190820180359060200190808060200260200160405190810160405280939291908181526020018383602002808284378201915050505050509190505061031a565b005b341561015257600080fd5b61019f6004808035906020019082018035906020019080806020026020016040519081016040528093929190818152602001838360200280828437820191505050505050919050506103fc565b6040518080602001828103825283818151815260200191508051906020019060200280838360005b838110156101e25780820151818401526020810190506101c7565b505050509050019250505060405180910390f35b341561020157600080fd5b61021b6004808035600019169060200190919050506104e0565b6040518082815260200191505060405180910390f35b341561023c57600080fd5b6102446104f8565b005b341561025157600080fd5b610259610526565b604051808273ffffffffffffffffffffffffffffffffffffffff1673ffffffffffffffffffffffffffffffffffffffff16815260200191505060405180910390f35b6000809054906101000a900473ffffffffffffffffffffffffffffffffffffffff1673ffffffffffffffffffffffffffffffffffffffff163373ffffffffffffffffffffffffffffffffffffffff161415156102f657600080fd5b80600160008460001916600019168152602001908152602001600020819055505050565b60008060008351855114151561032f57600080fd5b6000809054906101000a900473ffffffffffffffffffffffffffffffffffffffff1673ffffffffffffffffffffffffffffffffffffffff163373ffffffffffffffffffffffffffffffffffffffff1614151561038a57600080fd5b5b84518310156103f55784838151811015156103a257fe5b90602001906020020151915083838151811015156103bc57fe5b9060200190602002015190508060016000846000191660001916815260200190815260200160002081905550828060010193505061038b565b5050505050565b61040461054b565b600080600080600092505b855183101561048557858381518110151561042657fe5b906020019060200201519150600160008360001916600019168152602001908152602001600020549050838054806001018281610463919061055f565b916000526020600020900160008390919091505550828060010193505061040f565b838054806020026020016040519081016040528092919081815260200182805480156104d057602002820191906000526020600020905b8154815260200190600101908083116104bc575b5050505050945050505050919050565b60016020528060005260406000206000915090505481565b7f7a5a9be2557368a508b5719d592358a0eac73fdea1bc6c5eedf35c140e47172760405160405180910390a1565b6000809054906101000a900473ffffffffffffffffffffffffffffffffffffffff1681565b602060405190810160405280600081525090565b81548183558181151161058657818360005260206000209182019101610585919061058b565b5b505050565b6105ad91905b808211156105a9576000816000905550600101610591565b5090565b905600a165627a7a72305820ae6f7805297672b84d58bc8c552525d0ce5e555a7e443c7f9cede0b2741eb86b0029",
  "source": "pragma solidity^0.4.17;\n\ncontract Storager2 {\n  address public owner;\n\n\n  mapping (bytes32 => uint) public uints1;\n\n  event CallbackGetPrices();\n\n  function Storager2() public {\n    owner = msg.sender;\n  }\n\n  function updatePrices() public {\n    // Calls the callback function\n    CallbackGetPrices();\n  }\n  function setPrice(bytes32 code, uint cap) public {\n    // If it isn't sent by a trusted oracle\n    // a.k.a ourselves, ignore it\n    require(msg.sender == owner);\n    uints1[code] = cap;\n  }\n  function setPrices(bytes32[] inx, uint[] cap) public {\n    // If it isn't sent by a trusted oracle\n    // a.k.a ourselves, ignore it\n    require(inx.length == cap.length);\n    require(msg.sender == owner);\n\n    for(uint i;i<inx.length;i++) {\n      bytes32 mush = inx[i];\n      uint val = cap[i];\n      uints1[mush] = val;\n    }\n  }\n\n  function getPrices(bytes32[] codes) constant public returns (uint[]) {\n    uint[] warsaw;\n\n    for(uint i=0;i<codes.length;i++) {\n      bytes32 cod = codes[i];\n      uint val = uints1[cod];\n      warsaw.push(val);\n    }\n\n    return warsaw;\n  }\n\n\n\n}\n",
  "sourcePath": "/Users/juanbernardotobar/lacanoa/thechain/contracts/Storager2.sol",
  "compiler": {
    "name": "solc",
    "version": "0.4.19+commit.c4cbbb05.Emscripten.clang"
  },
  "schemaVersion": "1.0.1",
  "updatedAt": "2018-05-12T07:02:31.889Z"
}