{
  "contractName": "testStorage",
  "abi": [
    {
      "constant": true,
      "inputs": [],
      "name": "owner",
      "outputs": [
        {
          "name": "",
          "type": "address"
        }
      ],
      "payable": false,
      "stateMutability": "view",
      "type": "function"
    },
    {
      "inputs": [],
      "payable": false,
      "stateMutability": "nonpayable",
      "type": "constructor"
    },
    {
      "anonymous": false,
      "inputs": [],
      "name": "CallbackGetPrices",
      "type": "event"
    },
    {
      "constant": false,
      "inputs": [],
      "name": "updatePrices",
      "outputs": [],
      "payable": false,
      "stateMutability": "nonpayable",
      "type": "function"
    },
    {
      "constant": false,
      "inputs": [
        {
          "name": "code",
          "type": "string"
        },
        {
          "name": "cap",
          "type": "uint256"
        }
      ],
      "name": "setPrices",
      "outputs": [],
      "payable": false,
      "stateMutability": "nonpayable",
      "type": "function"
    },
    {
      "constant": true,
      "inputs": [
        {
          "name": "code",
          "type": "string"
        }
      ],
      "name": "getPrice",
      "outputs": [
        {
          "name": "",
          "type": "uint256"
        }
      ],
      "payable": false,
      "stateMutability": "view",
      "type": "function"
    }
  ],
  "bytecode": "0x6060604052341561000f57600080fd5b336000806101000a81548173ffffffffffffffffffffffffffffffffffffffff021916908373ffffffffffffffffffffffffffffffffffffffff16021790555061036b8061005e6000396000f300606060405260043610610062576000357c0100000000000000000000000000000000000000000000000000000000900463ffffffff16806349dd126214610067578063524f38891461007c57806379964a87146100ed5780638da5cb5b14610153575b600080fd5b341561007257600080fd5b61007a6101a8565b005b341561008757600080fd5b6100d7600480803590602001908201803590602001908080601f016020809104026020016040519081016040528093929190818152602001838380828437820191505050505050919050506101d6565b6040518082815260200191505060405180910390f35b34156100f857600080fd5b610151600480803590602001908201803590602001908080601f0160208091040260200160405190810160405280939291908181526020018383808284378201915050505050509190803590602001909190505061024b565b005b341561015e57600080fd5b61016661031a565b604051808273ffffffffffffffffffffffffffffffffffffffff1673ffffffffffffffffffffffffffffffffffffffff16815260200191505060405180910390f35b7f7a5a9be2557368a508b5719d592358a0eac73fdea1bc6c5eedf35c140e47172760405160405180910390a1565b60006001826040518082805190602001908083835b60208310151561021057805182526020820191506020810190506020830392506101eb565b6001836020036101000a0380198251168184511680821785525050505050509050019150509081526020016040518091039020549050919050565b6000809054906101000a900473ffffffffffffffffffffffffffffffffffffffff1673ffffffffffffffffffffffffffffffffffffffff163373ffffffffffffffffffffffffffffffffffffffff161415156102a657600080fd5b806001836040518082805190602001908083835b6020831015156102df57805182526020820191506020810190506020830392506102ba565b6001836020036101000a0380198251168184511680821785525050505050509050019150509081526020016040518091039020819055505050565b6000809054906101000a900473ffffffffffffffffffffffffffffffffffffffff16815600a165627a7a723058207162357995f63fa02783468ba94f80ef67e74fee2ed225fcd8098f5b80bb2b170029",
  "source": "pragma solidity^0.4.17;\n\ncontract testStorage {\n  address public owner;\n  mapping (string => uint) uints1;\n\n  event CallbackGetPrices();\n\n  function testStorage() public {\n    owner = msg.sender;\n  }\n\n  function updatePrices() public {\n    // Calls the callback function\n    CallbackGetPrices();\n  }\n  function setPrices(string code, uint cap) public {\n    // If it isn't sent by a trusted oracle\n    // a.k.a ourselves, ignore it\n    require(msg.sender == owner);\n    uints1[code] = cap;\n  }\n\n  function getPrice(string code) constant public returns (uint) {\n    return uints1[code];\n  }\n\n\n}\n",
  "sourcePath": "/Users/juanbernardotobar/lacanoa/thechain/contracts/TestStorage.sol",
  "compiler": {
    "name": "solc",
    "version": "0.4.19+commit.c4cbbb05.Emscripten.clang"
  },
  "schemaVersion": "1.0.1",
  "updatedAt": "2018-05-12T04:15:44.517Z"
}